{
  "_format": "hh-sol-artifact-1",
  "contractName": "Lottery",
  "sourceName": "contracts/Lottery.sol",
  "abi": [
    {
      "inputs": [
        {
          "internalType": "contract IERC20",
          "name": "tokenAddress",
          "type": "address"
        }
      ],
      "stateMutability": "nonpayable",
      "type": "constructor"
    },
    {
      "anonymous": false,
      "inputs": [
        {
          "indexed": false,
          "internalType": "address",
          "name": "_winner",
          "type": "address"
        },
        {
          "indexed": false,
          "internalType": "uint256",
          "name": "amount",
          "type": "uint256"
        }
      ],
      "name": "Draw",
      "type": "event"
    },
    {
      "anonymous": false,
      "inputs": [
        {
          "indexed": true,
          "internalType": "bytes32",
          "name": "role",
          "type": "bytes32"
        },
        {
          "indexed": true,
          "internalType": "bytes32",
          "name": "previousAdminRole",
          "type": "bytes32"
        },
        {
          "indexed": true,
          "internalType": "bytes32",
          "name": "newAdminRole",
          "type": "bytes32"
        }
      ],
      "name": "RoleAdminChanged",
      "type": "event"
    },
    {
      "anonymous": false,
      "inputs": [
        {
          "indexed": true,
          "internalType": "bytes32",
          "name": "role",
          "type": "bytes32"
        },
        {
          "indexed": true,
          "internalType": "address",
          "name": "account",
          "type": "address"
        },
        {
          "indexed": true,
          "internalType": "address",
          "name": "sender",
          "type": "address"
        }
      ],
      "name": "RoleGranted",
      "type": "event"
    },
    {
      "anonymous": false,
      "inputs": [
        {
          "indexed": true,
          "internalType": "bytes32",
          "name": "role",
          "type": "bytes32"
        },
        {
          "indexed": true,
          "internalType": "address",
          "name": "account",
          "type": "address"
        },
        {
          "indexed": true,
          "internalType": "address",
          "name": "sender",
          "type": "address"
        }
      ],
      "name": "RoleRevoked",
      "type": "event"
    },
    {
      "inputs": [],
      "name": "BASIS_POINTS",
      "outputs": [
        {
          "internalType": "uint256",
          "name": "",
          "type": "uint256"
        }
      ],
      "stateMutability": "view",
      "type": "function"
    },
    {
      "inputs": [],
      "name": "DEFAULT_ADMIN_ROLE",
      "outputs": [
        {
          "internalType": "bytes32",
          "name": "",
          "type": "bytes32"
        }
      ],
      "stateMutability": "view",
      "type": "function"
    },
    {
      "inputs": [
        {
          "internalType": "address",
          "name": "newAdmin",
          "type": "address"
        }
      ],
      "name": "addAdmin",
      "outputs": [],
      "stateMutability": "nonpayable",
      "type": "function"
    },
    {
      "inputs": [],
      "name": "adminCount",
      "outputs": [
        {
          "internalType": "uint8",
          "name": "",
          "type": "uint8"
        }
      ],
      "stateMutability": "view",
      "type": "function"
    },
    {
      "inputs": [
        {
          "internalType": "uint256",
          "name": "newPrice",
          "type": "uint256"
        }
      ],
      "name": "changeTicketPrice",
      "outputs": [],
      "stateMutability": "nonpayable",
      "type": "function"
    },
    {
      "inputs": [],
      "name": "currentPool",
      "outputs": [
        {
          "internalType": "uint256",
          "name": "",
          "type": "uint256"
        }
      ],
      "stateMutability": "view",
      "type": "function"
    },
    {
      "inputs": [],
      "name": "draw",
      "outputs": [],
      "stateMutability": "nonpayable",
      "type": "function"
    },
    {
      "inputs": [
        {
          "internalType": "uint256",
          "name": "ticketQuantity",
          "type": "uint256"
        }
      ],
      "name": "enterLottery",
      "outputs": [],
      "stateMutability": "payable",
      "type": "function"
    },
    {
      "inputs": [],
      "name": "getBalance",
      "outputs": [
        {
          "internalType": "uint256",
          "name": "",
          "type": "uint256"
        }
      ],
      "stateMutability": "view",
      "type": "function"
    },
    {
      "inputs": [
        {
          "internalType": "bytes32",
          "name": "role",
          "type": "bytes32"
        }
      ],
      "name": "getRoleAdmin",
      "outputs": [
        {
          "internalType": "bytes32",
          "name": "",
          "type": "bytes32"
        }
      ],
      "stateMutability": "view",
      "type": "function"
    },
    {
      "inputs": [
        {
          "internalType": "bytes32",
          "name": "role",
          "type": "bytes32"
        },
        {
          "internalType": "address",
          "name": "account",
          "type": "address"
        }
      ],
      "name": "grantRole",
      "outputs": [],
      "stateMutability": "nonpayable",
      "type": "function"
    },
    {
      "inputs": [
        {
          "internalType": "bytes32",
          "name": "role",
          "type": "bytes32"
        },
        {
          "internalType": "address",
          "name": "account",
          "type": "address"
        }
      ],
      "name": "hasRole",
      "outputs": [
        {
          "internalType": "bool",
          "name": "",
          "type": "bool"
        }
      ],
      "stateMutability": "view",
      "type": "function"
    },
    {
      "inputs": [],
      "name": "lastDraw",
      "outputs": [
        {
          "internalType": "uint256",
          "name": "",
          "type": "uint256"
        }
      ],
      "stateMutability": "view",
      "type": "function"
    },
    {
      "inputs": [
        {
          "internalType": "uint256",
          "name": "",
          "type": "uint256"
        }
      ],
      "name": "players",
      "outputs": [
        {
          "internalType": "address payable",
          "name": "",
          "type": "address"
        }
      ],
      "stateMutability": "view",
      "type": "function"
    },
    {
      "inputs": [
        {
          "internalType": "address",
          "name": "removedAdmin",
          "type": "address"
        }
      ],
      "name": "removeAdmin",
      "outputs": [],
      "stateMutability": "nonpayable",
      "type": "function"
    },
    {
      "inputs": [
        {
          "internalType": "bytes32",
          "name": "role",
          "type": "bytes32"
        },
        {
          "internalType": "address",
          "name": "account",
          "type": "address"
        }
      ],
      "name": "renounceRole",
      "outputs": [],
      "stateMutability": "nonpayable",
      "type": "function"
    },
    {
      "inputs": [
        {
          "internalType": "bytes32",
          "name": "role",
          "type": "bytes32"
        },
        {
          "internalType": "address",
          "name": "account",
          "type": "address"
        }
      ],
      "name": "revokeRole",
      "outputs": [],
      "stateMutability": "nonpayable",
      "type": "function"
    },
    {
      "inputs": [
        {
          "internalType": "bytes4",
          "name": "interfaceId",
          "type": "bytes4"
        }
      ],
      "name": "supportsInterface",
      "outputs": [
        {
          "internalType": "bool",
          "name": "",
          "type": "bool"
        }
      ],
      "stateMutability": "view",
      "type": "function"
    },
    {
      "inputs": [],
      "name": "ticketPrice",
      "outputs": [
        {
          "internalType": "uint256",
          "name": "",
          "type": "uint256"
        }
      ],
      "stateMutability": "view",
      "type": "function"
    },
    {
      "inputs": [],
      "name": "token",
      "outputs": [
        {
          "internalType": "contract IERC20",
          "name": "",
          "type": "address"
        }
      ],
      "stateMutability": "view",
      "type": "function"
    },
    {
      "inputs": [],
      "name": "withdrawlFees",
      "outputs": [],
      "stateMutability": "nonpayable",
      "type": "function"
    }
  ],
  "bytecode": "0x60806040526000600160006101000a81548160ff021916908360ff1602179055506801158e460913d0000060025560006003553480156200003f57600080fd5b50604051620024333803806200243383398181016040528101906200006591906200028a565b6200007a6000801b33620000fa60201b60201c565b620000ac7f6270edb7c868f86fda4adedba75108201087268ea345934db8bad688e1feb91b33620000fa60201b60201c565b42600681905550806001806101000a81548173ffffffffffffffffffffffffffffffffffffffff021916908373ffffffffffffffffffffffffffffffffffffffff1602179055505062000318565b6200010c82826200011060201b60201c565b5050565b6200012282826200020160201b60201c565b620001fd57600160008084815260200190815260200160002060000160008373ffffffffffffffffffffffffffffffffffffffff1673ffffffffffffffffffffffffffffffffffffffff16815260200190815260200160002060006101000a81548160ff021916908315150217905550620001a26200026b60201b60201c565b73ffffffffffffffffffffffffffffffffffffffff168173ffffffffffffffffffffffffffffffffffffffff16837f2f8788117e7eff1d82e926ec794901d17c78024a50270940304540a733656f0d60405160405180910390a45b5050565b600080600084815260200190815260200160002060000160008373ffffffffffffffffffffffffffffffffffffffff1673ffffffffffffffffffffffffffffffffffffffff16815260200190815260200160002060009054906101000a900460ff16905092915050565b600033905090565b6000815190506200028481620002fe565b92915050565b6000602082840312156200029d57600080fd5b6000620002ad8482850162000273565b91505092915050565b6000620002c382620002de565b9050919050565b6000620002d782620002b6565b9050919050565b600073ffffffffffffffffffffffffffffffffffffffff82169050919050565b6200030981620002ca565b81146200031557600080fd5b50565b61210b80620003286000396000f3fe60806040526004361061012a5760003560e01c80634630a0ee116100ab57806391d148541161006f57806391d1485414610397578063a217fddf146103d4578063d547741f146103ff578063e1f1c4a714610428578063f71d96cb14610453578063fc0c546a146104905761012a565b80634630a0ee146102d857806354176cfb146103015780635dd577ec14610318578063692b69ae14610343578063704802751461036e5761012a565b8063248a9ca3116100f2578063248a9ca3146102025780632b7832b31461023f5780632f2ff15d1461026a57806336568abe146102935780633fd43098146102bc5761012a565b806301ffc9a71461012f5780630eecae211461016c57806312065fe0146101835780631209b1f6146101ae5780631785f53c146101d9575b600080fd5b34801561013b57600080fd5b50610156600480360381019061015191906116b5565b6104bb565b60405161016391906119ff565b60405180910390f35b34801561017857600080fd5b50610181610535565b005b34801561018f57600080fd5b506101986107f4565b6040516101a59190611af2565b60405180910390f35b3480156101ba57600080fd5b506101c36108a4565b6040516101d09190611af2565b60405180910390f35b3480156101e557600080fd5b5061020060048036038101906101fb91906115fe565b6108aa565b005b34801561020e57600080fd5b5061022960048036038101906102249190611650565b61093a565b6040516102369190611a1a565b60405180910390f35b34801561024b57600080fd5b50610254610959565b6040516102619190611b0d565b60405180910390f35b34801561027657600080fd5b50610291600480360381019061028c9190611679565b61096c565b005b34801561029f57600080fd5b506102ba60048036038101906102b59190611679565b61098d565b005b6102d660048036038101906102d191906116de565b610a10565b005b3480156102e457600080fd5b506102ff60048036038101906102fa91906116de565b610b61565b005b34801561030d57600080fd5b50610316610b96565b005b34801561032457600080fd5b5061032d610c7b565b60405161033a9190611af2565b60405180910390f35b34801561034f57600080fd5b50610358610c81565b6040516103659190611af2565b60405180910390f35b34801561037a57600080fd5b50610395600480360381019061039091906115fe565b610c87565b005b3480156103a357600080fd5b506103be60048036038101906103b99190611679565b610d6d565b6040516103cb91906119ff565b60405180910390f35b3480156103e057600080fd5b506103e9610dd7565b6040516103f69190611a1a565b60405180910390f35b34801561040b57600080fd5b5061042660048036038101906104219190611679565b610dde565b005b34801561043457600080fd5b5061043d610dff565b60405161044a9190611af2565b60405180910390f35b34801561045f57600080fd5b5061047a600480360381019061047591906116de565b610e05565b6040516104879190611984565b60405180910390f35b34801561049c57600080fd5b506104a5610e44565b6040516104b29190611a35565b60405180910390f35b60007f7965db0b000000000000000000000000000000000000000000000000000000007bffffffffffffffffffffffffffffffffffffffffffffffffffffffff1916827bffffffffffffffffffffffffffffffffffffffffffffffffffffffff1916148061052e575061052d82610e68565b5b9050919050565b61055f7f6270edb7c868f86fda4adedba75108201087268ea345934db8bad688e1feb91b33610d6d565b80610590575061058f7fdf8b4c520ffe197c5343c6f5aec59570151ef9a492f2c624fd45ddde6135ec4233610d6d565b5b61059957600080fd5b61012c6006546105a99190611b4f565b4210156105eb576040517f08c379a00000000000000000000000000000000000000000000000000000000081526004016105e290611ab2565b60405180910390fd5b60006005805490506105fb610ed2565b6106059190611e4d565b9050600060058281548110610643577f4e487b7100000000000000000000000000000000000000000000000000000000600052603260045260246000fd5b9060005260206000200160009054906101000a900473ffffffffffffffffffffffffffffffffffffffff16905060018054906101000a900473ffffffffffffffffffffffffffffffffffffffff1673ffffffffffffffffffffffffffffffffffffffff1663a9059cbb826003546040518363ffffffff1660e01b81526004016106cd9291906119d6565b602060405180830381600087803b1580156106e757600080fd5b505af11580156106fb573d6000803e3d6000fd5b505050506040513d601f19601f8201168201806040525081019061071f9190611627565b507f7ffa12f2611233f19bb229a71c5d8224cb37373555ab6754b65aef59ea26831d816003546040516107539291906119d6565b60405180910390a1600067ffffffffffffffff81111561079c577f4e487b7100000000000000000000000000000000000000000000000000000000600052604160045260246000fd5b6040519080825280602002602001820160405280156107ca5781602001602082028036833780820191505090505b50600590805190602001906107e09291906114d9565b506000600381905550426006819055505050565b600060018054906101000a900473ffffffffffffffffffffffffffffffffffffffff1673ffffffffffffffffffffffffffffffffffffffff166370a08231306040518263ffffffff1660e01b815260040161084f9190611969565b60206040518083038186803b15801561086757600080fd5b505afa15801561087b573d6000803e3d6000fd5b505050506040513d601f19601f8201168201806040525081019061089f9190611707565b905090565b60025481565b7f6270edb7c868f86fda4adedba75108201087268ea345934db8bad688e1feb91b6108d481610f05565b6108fe7fdf8b4c520ffe197c5343c6f5aec59570151ef9a492f2c624fd45ddde6135ec4283610dde565b6001600081819054906101000a900460ff168092919061091d90611d82565b91906101000a81548160ff021916908360ff160217905550505050565b6000806000838152602001908152602001600020600101549050919050565b600160009054906101000a900460ff1681565b6109758261093a565b61097e81610f05565b6109888383610f19565b505050565b610995610ff9565b73ffffffffffffffffffffffffffffffffffffffff168173ffffffffffffffffffffffffffffffffffffffff1614610a02576040517f08c379a00000000000000000000000000000000000000000000000000000000081526004016109f990611ad2565b60405180910390fd5b610a0c8282611001565b5050565b600081600254610a209190611bd6565b905060018054906101000a900473ffffffffffffffffffffffffffffffffffffffff1673ffffffffffffffffffffffffffffffffffffffff166323b872dd3330846040518463ffffffff1660e01b8152600401610a7f9392919061199f565b602060405180830381600087803b158015610a9957600080fd5b505af1158015610aad573d6000803e3d6000fd5b505050506040513d601f19601f82011682018060405250810190610ad19190611627565b50610adb816110e2565b60005b82811015610b5c576005339080600181540180825580915050600190039060005260206000200160009091909190916101000a81548173ffffffffffffffffffffffffffffffffffffffff021916908373ffffffffffffffffffffffffffffffffffffffff1602179055508080610b5490611dac565b915050610ade565b505050565b7f6270edb7c868f86fda4adedba75108201087268ea345934db8bad688e1feb91b610b8b81610f05565b816002819055505050565b7f6270edb7c868f86fda4adedba75108201087268ea345934db8bad688e1feb91b610bc081610f05565b60018054906101000a900473ffffffffffffffffffffffffffffffffffffffff1673ffffffffffffffffffffffffffffffffffffffff1663a9059cbb336004546040518363ffffffff1660e01b8152600401610c1d9291906119d6565b602060405180830381600087803b158015610c3757600080fd5b505af1158015610c4b573d6000803e3d6000fd5b505050506040513d601f19601f82011682018060405250810190610c6f9190611627565b50600060048190555050565b60065481565b60035481565b7f6270edb7c868f86fda4adedba75108201087268ea345934db8bad688e1feb91b610cb181610f05565b6002600160009054906101000a900460ff1660ff161115610d07576040517f08c379a0000000000000000000000000000000000000000000000000000000008152600401610cfe90611a92565b60405180910390fd5b610d317fdf8b4c520ffe197c5343c6f5aec59570151ef9a492f2c624fd45ddde6135ec428361096c565b6001600081819054906101000a900460ff1680929190610d5090611df5565b91906101000a81548160ff021916908360ff160217905550505050565b600080600084815260200190815260200160002060000160008373ffffffffffffffffffffffffffffffffffffffff1673ffffffffffffffffffffffffffffffffffffffff16815260200190815260200160002060009054906101000a900460ff16905092915050565b6000801b81565b610de78261093a565b610df081610f05565b610dfa8383611001565b505050565b6101f481565b60058181548110610e1557600080fd5b906000526020600020016000915054906101000a900473ffffffffffffffffffffffffffffffffffffffff1681565b60018054906101000a900473ffffffffffffffffffffffffffffffffffffffff1681565b60007f01ffc9a7000000000000000000000000000000000000000000000000000000007bffffffffffffffffffffffffffffffffffffffffffffffffffffffff1916827bffffffffffffffffffffffffffffffffffffffffffffffffffffffff1916149050919050565b60003042604051602001610ee7929190611903565b6040516020818303038152906040528051906020012060001c905090565b610f1681610f11610ff9565b611142565b50565b610f238282610d6d565b610ff557600160008084815260200190815260200160002060000160008373ffffffffffffffffffffffffffffffffffffffff1673ffffffffffffffffffffffffffffffffffffffff16815260200190815260200160002060006101000a81548160ff021916908315150217905550610f9a610ff9565b73ffffffffffffffffffffffffffffffffffffffff168173ffffffffffffffffffffffffffffffffffffffff16837f2f8788117e7eff1d82e926ec794901d17c78024a50270940304540a733656f0d60405160405180910390a45b5050565b600033905090565b61100b8282610d6d565b156110de57600080600084815260200190815260200160002060000160008373ffffffffffffffffffffffffffffffffffffffff1673ffffffffffffffffffffffffffffffffffffffff16815260200190815260200160002060006101000a81548160ff021916908315150217905550611083610ff9565b73ffffffffffffffffffffffffffffffffffffffff168173ffffffffffffffffffffffffffffffffffffffff16837ff6391f5c32d9c69d2a47ea670b442974b53935d1edc7fd64eb21e047a839171b60405160405180910390a45b5050565b60006101f4612710836110f59190611ba5565b6110ff9190611bd6565b9050808261110d9190611c30565b6003600082825461111e9190611b4f565b9250508190555080600460008282546111379190611b4f565b925050819055505050565b61114c8282610d6d565b6111db576111718173ffffffffffffffffffffffffffffffffffffffff1660146111df565b61117f8360001c60206111df565b60405160200161119092919061192f565b6040516020818303038152906040526040517f08c379a00000000000000000000000000000000000000000000000000000000081526004016111d29190611a50565b60405180910390fd5b5050565b6060600060028360026111f29190611bd6565b6111fc9190611b4f565b67ffffffffffffffff81111561123b577f4e487b7100000000000000000000000000000000000000000000000000000000600052604160045260246000fd5b6040519080825280601f01601f19166020018201604052801561126d5781602001600182028036833780820191505090505b5090507f3000000000000000000000000000000000000000000000000000000000000000816000815181106112cb577f4e487b7100000000000000000000000000000000000000000000000000000000600052603260045260246000fd5b60200101907effffffffffffffffffffffffffffffffffffffffffffffffffffffffffffff1916908160001a9053507f780000000000000000000000000000000000000000000000000000000000000081600181518110611355577f4e487b7100000000000000000000000000000000000000000000000000000000600052603260045260246000fd5b60200101907effffffffffffffffffffffffffffffffffffffffffffffffffffffffffffff1916908160001a905350600060018460026113959190611bd6565b61139f9190611b4f565b90505b600181111561148b577f3031323334353637383961626364656600000000000000000000000000000000600f861660108110611407577f4e487b7100000000000000000000000000000000000000000000000000000000600052603260045260246000fd5b1a60f81b828281518110611444577f4e487b7100000000000000000000000000000000000000000000000000000000600052603260045260246000fd5b60200101907effffffffffffffffffffffffffffffffffffffffffffffffffffffffffffff1916908160001a905350600485901c94508061148490611d58565b90506113a2565b50600084146114cf576040517f08c379a00000000000000000000000000000000000000000000000000000000081526004016114c690611a72565b60405180910390fd5b8091505092915050565b828054828255906000526020600020908101928215611552579160200282015b828111156115515782518260006101000a81548173ffffffffffffffffffffffffffffffffffffffff021916908373ffffffffffffffffffffffffffffffffffffffff160217905550916020019190600101906114f9565b5b50905061155f9190611563565b5090565b5b8082111561157c576000816000905550600101611564565b5090565b60008135905061158f81612062565b92915050565b6000815190506115a481612079565b92915050565b6000813590506115b981612090565b92915050565b6000813590506115ce816120a7565b92915050565b6000813590506115e3816120be565b92915050565b6000815190506115f8816120be565b92915050565b60006020828403121561161057600080fd5b600061161e84828501611580565b91505092915050565b60006020828403121561163957600080fd5b600061164784828501611595565b91505092915050565b60006020828403121561166257600080fd5b6000611670848285016115aa565b91505092915050565b6000806040838503121561168c57600080fd5b600061169a858286016115aa565b92505060206116ab85828601611580565b9150509250929050565b6000602082840312156116c757600080fd5b60006116d5848285016115bf565b91505092915050565b6000602082840312156116f057600080fd5b60006116fe848285016115d4565b91505092915050565b60006020828403121561171957600080fd5b6000611727848285016115e9565b91505092915050565b61173981611c76565b82525050565b61174881611c64565b82525050565b61175f61175a82611c64565b611e1f565b82525050565b61176e81611c88565b82525050565b61177d81611c94565b82525050565b61178c81611d01565b82525050565b600061179d82611b28565b6117a78185611b33565b93506117b7818560208601611d25565b6117c081611edc565b840191505092915050565b60006117d682611b28565b6117e08185611b44565b93506117f0818560208601611d25565b80840191505092915050565b6000611809602083611b33565b915061181482611efa565b602082019050919050565b600061182c603483611b33565b915061183782611f23565b604082019050919050565b600061184f602e83611b33565b915061185a82611f72565b604082019050919050565b6000611872601783611b44565b915061187d82611fc1565b601782019050919050565b6000611895601183611b44565b91506118a082611fea565b601182019050919050565b60006118b8602f83611b33565b91506118c382612013565b604082019050919050565b6118d781611cea565b82525050565b6118ee6118e982611cea565b611e43565b82525050565b6118fd81611cf4565b82525050565b600061190f828561174e565b60148201915061191f82846118dd565b6020820191508190509392505050565b600061193a82611865565b915061194682856117cb565b915061195182611888565b915061195d82846117cb565b91508190509392505050565b600060208201905061197e600083018461173f565b92915050565b60006020820190506119996000830184611730565b92915050565b60006060820190506119b4600083018661173f565b6119c1602083018561173f565b6119ce60408301846118ce565b949350505050565b60006040820190506119eb600083018561173f565b6119f860208301846118ce565b9392505050565b6000602082019050611a146000830184611765565b92915050565b6000602082019050611a2f6000830184611774565b92915050565b6000602082019050611a4a6000830184611783565b92915050565b60006020820190508181036000830152611a6a8184611792565b905092915050565b60006020820190508181036000830152611a8b816117fc565b9050919050565b60006020820190508181036000830152611aab8161181f565b9050919050565b60006020820190508181036000830152611acb81611842565b9050919050565b60006020820190508181036000830152611aeb816118ab565b9050919050565b6000602082019050611b0760008301846118ce565b92915050565b6000602082019050611b2260008301846118f4565b92915050565b600081519050919050565b600082825260208201905092915050565b600081905092915050565b6000611b5a82611cea565b9150611b6583611cea565b9250827fffffffffffffffffffffffffffffffffffffffffffffffffffffffffffffffff03821115611b9a57611b99611e7e565b5b828201905092915050565b6000611bb082611cea565b9150611bbb83611cea565b925082611bcb57611bca611ead565b5b828204905092915050565b6000611be182611cea565b9150611bec83611cea565b9250817fffffffffffffffffffffffffffffffffffffffffffffffffffffffffffffffff0483118215151615611c2557611c24611e7e565b5b828202905092915050565b6000611c3b82611cea565b9150611c4683611cea565b925082821015611c5957611c58611e7e565b5b828203905092915050565b6000611c6f82611cca565b9050919050565b6000611c8182611cca565b9050919050565b60008115159050919050565b6000819050919050565b60007fffffffff0000000000000000000000000000000000000000000000000000000082169050919050565b600073ffffffffffffffffffffffffffffffffffffffff82169050919050565b6000819050919050565b600060ff82169050919050565b6000611d0c82611d13565b9050919050565b6000611d1e82611cca565b9050919050565b60005b83811015611d43578082015181840152602081019050611d28565b83811115611d52576000848401525b50505050565b6000611d6382611cea565b91506000821415611d7757611d76611e7e565b5b600182039050919050565b6000611d8d82611cf4565b91506000821415611da157611da0611e7e565b5b600182039050919050565b6000611db782611cea565b91507fffffffffffffffffffffffffffffffffffffffffffffffffffffffffffffffff821415611dea57611de9611e7e565b5b600182019050919050565b6000611e0082611cf4565b915060ff821415611e1457611e13611e7e565b5b600182019050919050565b6000611e2a82611e31565b9050919050565b6000611e3c82611eed565b9050919050565b6000819050919050565b6000611e5882611cea565b9150611e6383611cea565b925082611e7357611e72611ead565b5b828206905092915050565b7f4e487b7100000000000000000000000000000000000000000000000000000000600052601160045260246000fd5b7f4e487b7100000000000000000000000000000000000000000000000000000000600052601260045260246000fd5b6000601f19601f8301169050919050565b60008160601b9050919050565b7f537472696e67733a20686578206c656e67746820696e73756666696369656e74600082015250565b7f54686572652061726520616c726561647920322061646d696e206163636f756e60008201527f747320666f72207468697320636f6e7472616374000000000000000000000000602082015250565b7f546865206c6f74746572792063616e206f6e6c7920626520647261776e20657660008201527f6572792035206d696e757465732e000000000000000000000000000000000000602082015250565b7f416363657373436f6e74726f6c3a206163636f756e7420000000000000000000600082015250565b7f206973206d697373696e6720726f6c6520000000000000000000000000000000600082015250565b7f416363657373436f6e74726f6c3a2063616e206f6e6c792072656e6f756e636560008201527f20726f6c657320666f722073656c660000000000000000000000000000000000602082015250565b61206b81611c64565b811461207657600080fd5b50565b61208281611c88565b811461208d57600080fd5b50565b61209981611c94565b81146120a457600080fd5b50565b6120b081611c9e565b81146120bb57600080fd5b50565b6120c781611cea565b81146120d257600080fd5b5056fea2646970667358221220b34d8a129300c00a4542032c6c4c257f899430f00bffbe415b9c889f692c6eb364736f6c63430008030033",
  "linkReferences": {},
  "deployedLinkReferences": {}
}